{
  "_format": "hh-sol-artifact-1",
  "contractName": "Donate",
  "sourceName": "contracts/Donate.sol",
  "abi": [
    {
      "inputs": [
        {
          "internalType": "address",
          "name": "_registerUsers",
          "type": "address"
        },
        {
          "internalType": "address",
          "name": "_tokenPawsForHopeToken",
          "type": "address"
        }
      ],
      "stateMutability": "nonpayable",
      "type": "constructor"
    },
    {
      "inputs": [
        {
          "internalType": "address",
          "name": "owner",
          "type": "address"
        }
      ],
      "name": "OwnableInvalidOwner",
      "type": "error"
    },
    {
      "inputs": [
        {
          "internalType": "address",
          "name": "account",
          "type": "address"
        }
      ],
      "name": "OwnableUnauthorizedAccount",
      "type": "error"
    },
    {
      "anonymous": false,
      "inputs": [
        {
          "indexed": true,
          "internalType": "address",
          "name": "agent",
          "type": "address"
        }
      ],
      "name": "AgentAdded",
      "type": "event"
    },
    {
      "anonymous": false,
      "inputs": [
        {
          "indexed": true,
          "internalType": "address",
          "name": "agent",
          "type": "address"
        }
      ],
      "name": "AgentRemoved",
      "type": "event"
    },
    {
      "anonymous": false,
      "inputs": [
        {
          "indexed": true,
          "internalType": "uint256",
          "name": "postId",
          "type": "uint256"
        },
        {
          "indexed": true,
          "internalType": "address",
          "name": "donor",
          "type": "address"
        },
        {
          "indexed": false,
          "internalType": "uint256",
          "name": "amount",
          "type": "uint256"
        }
      ],
      "name": "DonationReceived",
      "type": "event"
    },
    {
      "anonymous": false,
      "inputs": [
        {
          "indexed": true,
          "internalType": "address",
          "name": "previousOwner",
          "type": "address"
        },
        {
          "indexed": true,
          "internalType": "address",
          "name": "newOwner",
          "type": "address"
        }
      ],
      "name": "OwnershipTransferred",
      "type": "event"
    },
    {
      "anonymous": false,
      "inputs": [
        {
          "indexed": true,
          "internalType": "uint256",
          "name": "postId",
          "type": "uint256"
        }
      ],
      "name": "PostClosed",
      "type": "event"
    },
    {
      "anonymous": false,
      "inputs": [
        {
          "indexed": true,
          "internalType": "uint256",
          "name": "postId",
          "type": "uint256"
        },
        {
          "indexed": true,
          "internalType": "address",
          "name": "creator",
          "type": "address"
        },
        {
          "indexed": false,
          "internalType": "uint256",
          "name": "targetAmount",
          "type": "uint256"
        },
        {
          "indexed": false,
          "internalType": "string",
          "name": "description",
          "type": "string"
        }
      ],
      "name": "PostCreated",
      "type": "event"
    },
    {
      "inputs": [],
      "name": "USDC",
      "outputs": [
        {
          "internalType": "address",
          "name": "",
          "type": "address"
        }
      ],
      "stateMutability": "view",
      "type": "function"
    },
    {
      "inputs": [
        {
          "internalType": "address",
          "name": "_agent",
          "type": "address"
        }
      ],
      "name": "addAgent",
      "outputs": [],
      "stateMutability": "nonpayable",
      "type": "function"
    },
    {
      "inputs": [
        {
          "internalType": "uint256",
          "name": "_postId",
          "type": "uint256"
        }
      ],
      "name": "closePost",
      "outputs": [],
      "stateMutability": "nonpayable",
      "type": "function"
    },
    {
      "inputs": [
        {
          "internalType": "uint256",
          "name": "_targetAmount",
          "type": "uint256"
        },
        {
          "internalType": "string",
          "name": "_description",
          "type": "string"
        }
      ],
      "name": "createDonationPost",
      "outputs": [],
      "stateMutability": "nonpayable",
      "type": "function"
    },
    {
      "inputs": [
        {
          "internalType": "uint256",
          "name": "_postId",
          "type": "uint256"
        },
        {
          "internalType": "uint256",
          "name": "_amount",
          "type": "uint256"
        }
      ],
      "name": "donateToPost",
      "outputs": [],
      "stateMutability": "nonpayable",
      "type": "function"
    },
    {
      "inputs": [
        {
          "internalType": "address",
          "name": "_address",
          "type": "address"
        }
      ],
      "name": "isAgent",
      "outputs": [
        {
          "internalType": "bool",
          "name": "",
          "type": "bool"
        }
      ],
      "stateMutability": "view",
      "type": "function"
    },
    {
      "inputs": [],
      "name": "owner",
      "outputs": [
        {
          "internalType": "address",
          "name": "",
          "type": "address"
        }
      ],
      "stateMutability": "view",
      "type": "function"
    },
    {
      "inputs": [
        {
          "internalType": "uint256",
          "name": "",
          "type": "uint256"
        }
      ],
      "name": "posts",
      "outputs": [
        {
          "internalType": "address",
          "name": "creator",
          "type": "address"
        },
        {
          "internalType": "uint256",
          "name": "targetAmount",
          "type": "uint256"
        },
        {
          "internalType": "uint256",
          "name": "currentAmount",
          "type": "uint256"
        },
        {
          "internalType": "bool",
          "name": "isOpen",
          "type": "bool"
        },
        {
          "internalType": "string",
          "name": "description",
          "type": "string"
        }
      ],
      "stateMutability": "view",
      "type": "function"
    },
    {
      "inputs": [],
      "name": "registerUsers",
      "outputs": [
        {
          "internalType": "contract RegisterUsers",
          "name": "",
          "type": "address"
        }
      ],
      "stateMutability": "view",
      "type": "function"
    },
    {
      "inputs": [
        {
          "internalType": "address",
          "name": "_agent",
          "type": "address"
        }
      ],
      "name": "removeAgent",
      "outputs": [],
      "stateMutability": "nonpayable",
      "type": "function"
    },
    {
      "inputs": [],
      "name": "renounceOwnership",
      "outputs": [],
      "stateMutability": "nonpayable",
      "type": "function"
    },
    {
      "inputs": [],
      "name": "tokenPawsForHopeToken",
      "outputs": [
        {
          "internalType": "contract PawsForHopeToken",
          "name": "",
          "type": "address"
        }
      ],
      "stateMutability": "view",
      "type": "function"
    },
    {
      "inputs": [
        {
          "internalType": "address",
          "name": "newOwner",
          "type": "address"
        }
      ],
      "name": "transferOwnership",
      "outputs": [],
      "stateMutability": "nonpayable",
      "type": "function"
    },
    {
      "inputs": [],
      "name": "usdc",
      "outputs": [
        {
          "internalType": "contract IERC20",
          "name": "",
          "type": "address"
        }
      ],
      "stateMutability": "view",
      "type": "function"
    }
  ],
  "bytecode": "0x608060405260006001553480156200001657600080fd5b50604051620014e5380380620014e58339810160408190526200003991620001e0565b33806200006157604051631e4fbdf760e01b8152600060048201526024015b60405180910390fd5b6200006c8162000173565b506001600160a01b038216620000c55760405162461bcd60e51b815260206004820152601d60248201527f496e76616c696420526567697374657255736572732061646472657373000000604482015260640162000058565b6001600160a01b0381166200011d5760405162461bcd60e51b815260206004820152601b60248201527f496e76616c696420546f6b656e48656c50657420616464726573730000000000604482015260640162000058565b600480546001600160a01b039384166001600160a01b03199182161790915560058054929093169181169190911790915560068054909116731dfe0b41ddebe308b6096d32a0c404b2d835c6ce17905562000218565b600080546001600160a01b038381166001600160a01b0319831681178455604051919092169283917f8be0079c531659141344cd1fd0a4f28419497f9722a3daafe3b4186f6b6457e09190a35050565b80516001600160a01b0381168114620001db57600080fd5b919050565b60008060408385031215620001f457600080fd5b620001ff83620001c3565b91506200020f60208401620001c3565b90509250929050565b6112bd80620002286000396000f3fe608060405234801561001057600080fd5b50600436106100ea5760003560e01c806384e798421161008c578063972481fe11610066578063972481fe1461020557806397a6278e14610218578063e70bea1d1461022b578063f2fde38b1461023e57600080fd5b806384e79842146101c657806389a30271146101d95780638da5cb5b146101f457600080fd5b80633e413bee116100c85780633e413bee1461016d5780633ef02d1314610198578063505af458146101ab578063715018a6146101be57600080fd5b80630b1e7f83146100ef578063164dc1c31461011c5780631ffbb06414610131575b600080fd5b6101026100fd366004610ea4565b610251565b604051610113959493929190610f03565b60405180910390f35b61012f61012a366004610f5a565b61031a565b005b61015d61013f366004611015565b6001600160a01b031660009081526003602052604090205460ff1690565b6040519015158152602001610113565b600654610180906001600160a01b031681565b6040516001600160a01b039091168152602001610113565b600554610180906001600160a01b031681565b61012f6101b9366004611045565b6105a8565b61012f610a8f565b61012f6101d4366004611015565b610aa3565b610180731dfe0b41ddebe308b6096d32a0c404b2d835c6ce81565b6000546001600160a01b0316610180565b600454610180906001600160a01b031681565b61012f610226366004611015565b610bb6565b61012f610239366004610ea4565b610c6f565b61012f61024c366004611015565b610ddc565b6002602081905260009182526040909120805460018201549282015460038301546004840180546001600160a01b039094169594929360ff909216929161029790611067565b80601f01602080910402602001604051908101604052809291908181526020018280546102c390611067565b80156103105780601f106102e557610100808354040283529160200191610310565b820191906000526020600020905b8154815290600101906020018083116102f357829003601f168201915b5050505050905085565b6004805460405163daf60b7160e01b815233928101929092526001600160a01b03169063daf60b7190602401602060405180830381865afa158015610363573d6000803e3d6000fd5b505050506040513d601f19601f8201168201806040525081019061038791906110a1565b6103fe5760405162461bcd60e51b815260206004820152602960248201527f4f6e6c79207265676973746572656420656e7469746965732063616e2063726560448201527f61746520706f737473000000000000000000000000000000000000000000000060648201526084015b60405180910390fd5b6000821161045a5760405162461bcd60e51b8152602060048201526024808201527f54617267657420616d6f756e74206d75737420626520677265617465722074686044820152630616e20360e41b60648201526084016103f5565b60008151116104ab5760405162461bcd60e51b815260206004820152601b60248201527f4465736372697074696f6e2063616e6e6f7420626520656d707479000000000060448201526064016103f5565b60018054600091826104bc836110d9565b909155506040805160a08101825233815260208082018781526000838501818152600160608601818152608087018b8152898552600296879052979093208651815473ffffffffffffffffffffffffffffffffffffffff19166001600160a01b039091161781559351908401555192820192909255905160038201805460ff1916911515919091179055915192935091600482019061055b9082611141565b50905050336001600160a01b0316817f9916d9555ce25964e46f39ee4190250e45c845fb11f2de41925e973aff6ad051858560405161059b929190611201565b60405180910390a3505050565b60048054604051631f5bdf5d60e01b815233928101929092526001600160a01b031690631f5bdf5d90602401602060405180830381865afa1580156105f1573d6000803e3d6000fd5b505050506040513d601f19601f8201168201806040525081019061061591906110a1565b8061068857506004805460405163daf60b7160e01b815233928101929092526001600160a01b03169063daf60b7190602401602060405180830381865afa158015610664573d6000803e3d6000fd5b505050506040513d601f19601f8201168201806040525081019061068891906110a1565b6106de5760405162461bcd60e51b815260206004820152602160248201527f4d75737420626520726567697374657265642075736572206f7220656e7469746044820152607960f81b60648201526084016103f5565b600154821061072f5760405162461bcd60e51b815260206004820152601360248201527f506f737420646f6573206e6f742065786973740000000000000000000000000060448201526064016103f5565b6000811161077f5760405162461bcd60e51b815260206004820152601d60248201527f416d6f756e74206d7573742062652067726561746572207468616e203000000060448201526064016103f5565b6000828152600260205260409020600381015460ff166107e15760405162461bcd60e51b815260206004820152600e60248201527f506f737420697320636c6f73656400000000000000000000000000000000000060448201526064016103f5565b600060646107f0846063611222565b6107fa919061123f565b905060006108088285611261565b60065484546040516323b872dd60e01b81523360048201526001600160a01b0391821660248201526044810186905292935016906323b872dd906064016020604051808303816000875af1158015610864573d6000803e3d6000fd5b505050506040513d601f19601f8201168201806040525081019061088891906110a1565b6108d45760405162461bcd60e51b815260206004820152601760248201527f43726561746f72207472616e73666572206661696c656400000000000000000060448201526064016103f5565b6006546001600160a01b03166323b872dd336108f86000546001600160a01b031690565b6040517fffffffff0000000000000000000000000000000000000000000000000000000060e085901b1681526001600160a01b03928316600482015291166024820152604481018490526064016020604051808303816000875af1158015610964573d6000803e3d6000fd5b505050506040513d601f19601f8201168201806040525081019061098891906110a1565b6109d45760405162461bcd60e51b815260206004820152601560248201527f4f776e6572207472616e73666572206661696c6564000000000000000000000060448201526064016103f5565b838360020160008282546109e89190611274565b90915550506005546040516340c10f1960e01b8152336004820152603260248201526001600160a01b03909116906340c10f1990604401600060405180830381600087803b158015610a3957600080fd5b505af1158015610a4d573d6000803e3d6000fd5b50506040518681523392508791507f0b5b4c52969ff7329ecf7ee536409fda87812b15a8622bc6e8cdeab3aee14a269060200160405180910390a35050505050565b610a97610e1a565b610aa16000610e47565b565b610aab610e1a565b6001600160a01b038116610b015760405162461bcd60e51b815260206004820181905260248201527f43616e6e6f7420616464207a65726f2061646472657373206173206167656e7460448201526064016103f5565b6001600160a01b03811660009081526003602052604090205460ff1615610b6a5760405162461bcd60e51b815260206004820152601b60248201527f4164647265737320697320616c726561647920616e206167656e74000000000060448201526064016103f5565b6001600160a01b038116600081815260036020526040808220805460ff19166001179055517ff68e73cec97f2d70aa641fb26e87a4383686e2efacb648f2165aeb02ac562ec59190a250565b610bbe610e1a565b6001600160a01b03811660009081526003602052604090205460ff16610c265760405162461bcd60e51b815260206004820152601760248201527f41646472657373206973206e6f7420616e206167656e7400000000000000000060448201526064016103f5565b6001600160a01b038116600081815260036020526040808220805460ff19169055517fed9c8ad8d5a0a66898ea49d2956929c93ae2e8bd50281b2ed897c5d1a6737e0b9190a250565b6001548110610cc05760405162461bcd60e51b815260206004820152601360248201527f506f737420646f6573206e6f742065786973740000000000000000000000000060448201526064016103f5565b6000818152600260205260409020600381015460ff16610d225760405162461bcd60e51b815260206004820152601660248201527f506f737420697320616c726561647920636c6f7365640000000000000000000060448201526064016103f5565b80546001600160a01b0316331480610d4957503360009081526003602052604090205460ff165b610da15760405162461bcd60e51b8152602060048201526024808201527f4f6e6c792063726561746f72206f72206167656e742063616e20636c6f7365206044820152631c1bdcdd60e21b60648201526084016103f5565b60038101805460ff1916905560405182907fc8c5b84ad16852871e3c961bc15ae506c72fcd803553d30e26384d95705f6d0490600090a25050565b610de4610e1a565b6001600160a01b038116610e0e57604051631e4fbdf760e01b8152600060048201526024016103f5565b610e1781610e47565b50565b6000546001600160a01b03163314610aa15760405163118cdaa760e01b81523360048201526024016103f5565b600080546001600160a01b0383811673ffffffffffffffffffffffffffffffffffffffff19831681178455604051919092169283917f8be0079c531659141344cd1fd0a4f28419497f9722a3daafe3b4186f6b6457e09190a35050565b600060208284031215610eb657600080fd5b5035919050565b6000815180845260005b81811015610ee357602081850181015186830182015201610ec7565b506000602082860101526020601f19601f83011685010191505092915050565b6001600160a01b0386168152846020820152836040820152821515606082015260a060808201526000610f3960a0830184610ebd565b979650505050505050565b634e487b7160e01b600052604160045260246000fd5b60008060408385031215610f6d57600080fd5b82359150602083013567ffffffffffffffff80821115610f8c57600080fd5b818501915085601f830112610fa057600080fd5b813581811115610fb257610fb2610f44565b604051601f8201601f19908116603f01168101908382118183101715610fda57610fda610f44565b81604052828152886020848701011115610ff357600080fd5b8260208601602083013760006020848301015280955050505050509250929050565b60006020828403121561102757600080fd5b81356001600160a01b038116811461103e57600080fd5b9392505050565b6000806040838503121561105857600080fd5b50508035926020909101359150565b600181811c9082168061107b57607f821691505b60208210810361109b57634e487b7160e01b600052602260045260246000fd5b50919050565b6000602082840312156110b357600080fd5b8151801515811461103e57600080fd5b634e487b7160e01b600052601160045260246000fd5b6000600182016110eb576110eb6110c3565b5060010190565b601f82111561113c57600081815260208120601f850160051c810160208610156111195750805b601f850160051c820191505b8181101561113857828155600101611125565b5050505b505050565b815167ffffffffffffffff81111561115b5761115b610f44565b61116f816111698454611067565b846110f2565b602080601f8311600181146111a4576000841561118c5750858301515b600019600386901b1c1916600185901b178555611138565b600085815260208120601f198616915b828110156111d3578886015182559484019460019091019084016111b4565b50858210156111f15787850151600019600388901b60f8161c191681555b5050505050600190811b01905550565b82815260406020820152600061121a6040830184610ebd565b949350505050565b8082028115828204841417611239576112396110c3565b92915050565b60008261125c57634e487b7160e01b600052601260045260246000fd5b500490565b81810381811115611239576112396110c3565b80820180821115611239576112396110c356fea2646970667358221220969927ed0c7eb8eb2015b9c4fcca4d707dd97d6dfb3862c820405cfb338fb8c864736f6c63430008140033",
  "linkReferences": {},
  "deployedLinkReferences": {}
}