{
  "_format": "hh-sol-artifact-1",
  "contractName": "FindPet",
  "sourceName": "contracts/FindPet.sol",
  "abi": [
    {
      "inputs": [
        {
          "internalType": "address",
          "name": "_registerUsers",
          "type": "address"
        },
        {
          "internalType": "address",
          "name": "_tokenPawsForHopeToken",
          "type": "address"
        }
      ],
      "stateMutability": "nonpayable",
      "type": "constructor"
    },
    {
      "inputs": [
        {
          "internalType": "address",
          "name": "owner",
          "type": "address"
        }
      ],
      "name": "OwnableInvalidOwner",
      "type": "error"
    },
    {
      "inputs": [
        {
          "internalType": "address",
          "name": "account",
          "type": "address"
        }
      ],
      "name": "OwnableUnauthorizedAccount",
      "type": "error"
    },
    {
      "anonymous": false,
      "inputs": [
        {
          "indexed": true,
          "internalType": "address",
          "name": "agent",
          "type": "address"
        }
      ],
      "name": "AgentAdded",
      "type": "event"
    },
    {
      "anonymous": false,
      "inputs": [
        {
          "indexed": true,
          "internalType": "address",
          "name": "agent",
          "type": "address"
        }
      ],
      "name": "AgentRemoved",
      "type": "event"
    },
    {
      "anonymous": false,
      "inputs": [
        {
          "indexed": true,
          "internalType": "address",
          "name": "donor",
          "type": "address"
        },
        {
          "indexed": false,
          "internalType": "uint256",
          "name": "amount",
          "type": "uint256"
        },
        {
          "indexed": false,
          "internalType": "uint256",
          "name": "tokens",
          "type": "uint256"
        }
      ],
      "name": "DonationProcessed",
      "type": "event"
    },
    {
      "anonymous": false,
      "inputs": [
        {
          "indexed": true,
          "internalType": "address",
          "name": "donor",
          "type": "address"
        },
        {
          "indexed": false,
          "internalType": "uint256",
          "name": "amount",
          "type": "uint256"
        }
      ],
      "name": "DonationReceived",
      "type": "event"
    },
    {
      "anonymous": false,
      "inputs": [
        {
          "indexed": true,
          "internalType": "address",
          "name": "previousOwner",
          "type": "address"
        },
        {
          "indexed": true,
          "internalType": "address",
          "name": "newOwner",
          "type": "address"
        }
      ],
      "name": "OwnershipTransferred",
      "type": "event"
    },
    {
      "anonymous": false,
      "inputs": [
        {
          "indexed": true,
          "internalType": "uint256",
          "name": "postId",
          "type": "uint256"
        },
        {
          "indexed": true,
          "internalType": "address",
          "name": "beneficiary",
          "type": "address"
        },
        {
          "indexed": false,
          "internalType": "uint256",
          "name": "amount",
          "type": "uint256"
        }
      ],
      "name": "PostClosed",
      "type": "event"
    },
    {
      "anonymous": false,
      "inputs": [
        {
          "indexed": true,
          "internalType": "uint256",
          "name": "postId",
          "type": "uint256"
        },
        {
          "indexed": true,
          "internalType": "address",
          "name": "creator",
          "type": "address"
        },
        {
          "indexed": false,
          "internalType": "uint256",
          "name": "amount",
          "type": "uint256"
        }
      ],
      "name": "PostCreated",
      "type": "event"
    },
    {
      "inputs": [],
      "name": "USDC",
      "outputs": [
        {
          "internalType": "address",
          "name": "",
          "type": "address"
        }
      ],
      "stateMutability": "view",
      "type": "function"
    },
    {
      "inputs": [
        {
          "internalType": "address",
          "name": "_agent",
          "type": "address"
        }
      ],
      "name": "addAgent",
      "outputs": [],
      "stateMutability": "nonpayable",
      "type": "function"
    },
    {
      "inputs": [
        {
          "internalType": "uint256",
          "name": "_postId",
          "type": "uint256"
        },
        {
          "internalType": "address",
          "name": "_beneficiary",
          "type": "address"
        }
      ],
      "name": "closePost",
      "outputs": [],
      "stateMutability": "nonpayable",
      "type": "function"
    },
    {
      "inputs": [
        {
          "internalType": "uint256",
          "name": "_amount",
          "type": "uint256"
        }
      ],
      "name": "createPost",
      "outputs": [],
      "stateMutability": "nonpayable",
      "type": "function"
    },
    {
      "inputs": [
        {
          "internalType": "uint256",
          "name": "_postId",
          "type": "uint256"
        }
      ],
      "name": "getPost",
      "outputs": [
        {
          "internalType": "address",
          "name": "creator",
          "type": "address"
        },
        {
          "internalType": "uint256",
          "name": "amount",
          "type": "uint256"
        },
        {
          "internalType": "bool",
          "name": "isOpen",
          "type": "bool"
        }
      ],
      "stateMutability": "view",
      "type": "function"
    },
    {
      "inputs": [
        {
          "internalType": "address",
          "name": "_address",
          "type": "address"
        }
      ],
      "name": "isAgent",
      "outputs": [
        {
          "internalType": "bool",
          "name": "",
          "type": "bool"
        }
      ],
      "stateMutability": "view",
      "type": "function"
    },
    {
      "inputs": [],
      "name": "owner",
      "outputs": [
        {
          "internalType": "address",
          "name": "",
          "type": "address"
        }
      ],
      "stateMutability": "view",
      "type": "function"
    },
    {
      "inputs": [
        {
          "internalType": "uint256",
          "name": "",
          "type": "uint256"
        }
      ],
      "name": "posts",
      "outputs": [
        {
          "internalType": "address",
          "name": "creator",
          "type": "address"
        },
        {
          "internalType": "uint256",
          "name": "amount",
          "type": "uint256"
        },
        {
          "internalType": "bool",
          "name": "isOpen",
          "type": "bool"
        }
      ],
      "stateMutability": "view",
      "type": "function"
    },
    {
      "inputs": [],
      "name": "registerUsers",
      "outputs": [
        {
          "internalType": "contract RegisterUsers",
          "name": "",
          "type": "address"
        }
      ],
      "stateMutability": "view",
      "type": "function"
    },
    {
      "inputs": [
        {
          "internalType": "address",
          "name": "_agent",
          "type": "address"
        }
      ],
      "name": "removeAgent",
      "outputs": [],
      "stateMutability": "nonpayable",
      "type": "function"
    },
    {
      "inputs": [],
      "name": "renounceOwnership",
      "outputs": [],
      "stateMutability": "nonpayable",
      "type": "function"
    },
    {
      "inputs": [],
      "name": "tokenPawsForHopeToken",
      "outputs": [
        {
          "internalType": "contract PawsForHopeToken",
          "name": "",
          "type": "address"
        }
      ],
      "stateMutability": "view",
      "type": "function"
    },
    {
      "inputs": [
        {
          "internalType": "address",
          "name": "newOwner",
          "type": "address"
        }
      ],
      "name": "transferOwnership",
      "outputs": [],
      "stateMutability": "nonpayable",
      "type": "function"
    },
    {
      "inputs": [],
      "name": "usdc",
      "outputs": [
        {
          "internalType": "contract IERC20",
          "name": "",
          "type": "address"
        }
      ],
      "stateMutability": "view",
      "type": "function"
    }
  ],
  "bytecode": "0x608060405260006001553480156200001657600080fd5b50604051620010ae380380620010ae8339810160408190526200003991620001ee565b33806200006157604051631e4fbdf760e01b8152600060048201526024015b60405180910390fd5b6200006c8162000181565b506001600160a01b038216620000c55760405162461bcd60e51b815260206004820152601d60248201527f496e76616c696420526567697374657255736572732061646472657373000000604482015260640162000058565b6001600160a01b0381166200012b5760405162461bcd60e51b815260206004820152602560248201527f496e76616c696420746f6b656e50617773466f72486f7065546f6b656e206164604482015264647265737360d81b606482015260840162000058565b600480546001600160a01b039384166001600160a01b03199182161790915560058054929093169181169190911790915560068054909116731dfe0b41ddebe308b6096d32a0c404b2d835c6ce17905562000226565b600080546001600160a01b038381166001600160a01b0319831681178455604051919092169283917f8be0079c531659141344cd1fd0a4f28419497f9722a3daafe3b4186f6b6457e09190a35050565b80516001600160a01b0381168114620001e957600080fd5b919050565b600080604083850312156200020257600080fd5b6200020d83620001d1565b91506200021d60208401620001d1565b90509250929050565b610e7880620002366000396000f3fe608060405234801561001057600080fd5b50600436106100ea5760003560e01c8063715018a61161008c5780638da5cb5b116100665780638da5cb5b14610243578063972481fe1461025457806397a6278e14610267578063f2fde38b1461027a57600080fd5b8063715018a61461020d57806384e798421461021557806389a302711461022857600080fd5b80633e413bee116100c85780633e413bee146101a95780633ef02d13146101d457806340731c24146101e75780635b6c497f146101fa57600080fd5b80630b1e7f83146100ef5780631d69bd48146101585780631ffbb0641461016d575b600080fd5b61012c6100fd366004610d1c565b60026020819052600091825260409091208054600182015491909201546001600160a01b039092169160ff1683565b604080516001600160a01b03909416845260208401929092521515908201526060015b60405180910390f35b61016b610166366004610d1c565b61028d565b005b61019961017b366004610d51565b6001600160a01b031660009081526003602052604090205460ff1690565b604051901515815260200161014f565b6006546101bc906001600160a01b031681565b6040516001600160a01b03909116815260200161014f565b6005546101bc906001600160a01b031681565b61012c6101f5366004610d1c565b6105a0565b61016b610208366004610d73565b61062a565b61016b610a74565b61016b610223366004610d51565b610a88565b6101bc731dfe0b41ddebe308b6096d32a0c404b2d835c6ce81565b6000546001600160a01b03166101bc565b6004546101bc906001600160a01b031681565b61016b610275366004610d51565b610b9b565b61016b610288366004610d51565b610c54565b60048054604051631f5bdf5d60e01b815233928101929092526001600160a01b031690631f5bdf5d90602401602060405180830381865afa1580156102d6573d6000803e3d6000fd5b505050506040513d601f19601f820116820180604052508101906102fa9190610d9f565b8061036d57506004805460405163daf60b7160e01b815233928101929092526001600160a01b03169063daf60b7190602401602060405180830381865afa158015610349573d6000803e3d6000fd5b505050506040513d601f19601f8201168201806040525081019061036d9190610d9f565b6103c85760405162461bcd60e51b815260206004820152602160248201527f4d75737420626520726567697374657265642075736572206f7220656e7469746044820152607960f81b60648201526084015b60405180910390fd5b600081116104185760405162461bcd60e51b815260206004820152601d60248201527f416d6f756e74206d7573742062652067726561746572207468616e203000000060448201526064016103bf565b6006546040516323b872dd60e01b8152336004820152306024820152604481018390526001600160a01b03909116906323b872dd906064016020604051808303816000875af115801561046f573d6000803e3d6000fd5b505050506040513d601f19601f820116820180604052508101906104939190610d9f565b6104df5760405162461bcd60e51b815260206004820152601460248201527f55534443207472616e73666572206661696c656400000000000000000000000060448201526064016103bf565b60018054600091826104f083610dd7565b9091555060408051606081018252338082526020808301878152600184860181815260008881526002808652908890209651875473ffffffffffffffffffffffffffffffffffffffff19166001600160a01b03909116178755925191860191909155519301805460ff1916931515939093179092559151858152929350909183917f35e9d1576a3cf0faf0d7e6d6fd53fcfebe5a51f7043238e20ff4125e5df65773910160405180910390a35050565b600080600060015484106105f65760405162461bcd60e51b815260206004820152601360248201527f506f737420646f6573206e6f742065786973740000000000000000000000000060448201526064016103bf565b50505060009081526002602081905260409091208054600182015491909201546001600160a01b0390921692909160ff1690565b600154821061067b5760405162461bcd60e51b815260206004820152601360248201527f506f737420646f6573206e6f742065786973740000000000000000000000000060448201526064016103bf565b60008281526002602081905260409091209081015460ff166106df5760405162461bcd60e51b815260206004820152601660248201527f506f737420697320616c726561647920636c6f7365640000000000000000000060448201526064016103bf565b80546001600160a01b031633148061070657503360009081526003602052604090205460ff165b61075e5760405162461bcd60e51b8152602060048201526024808201527f4f6e6c792063726561746f72206f72206167656e742063616e20636c6f7365206044820152631c1bdcdd60e21b60648201526084016103bf565b6001600160a01b0382166107b45760405162461bcd60e51b815260206004820152601b60248201527f496e76616c69642062656e65666963696172792061646472657373000000000060448201526064016103bf565b60028101805460ff1916905560018101546000906064906107d6906061610df0565b6107e09190610e0d565b905060008183600101546107f49190610e2f565b6006546040516323b872dd60e01b81523060048201526001600160a01b038781166024830152604482018690529293509116906323b872dd906064016020604051808303816000875af115801561084f573d6000803e3d6000fd5b505050506040513d601f19601f820116820180604052508101906108739190610d9f565b6108bf5760405162461bcd60e51b815260206004820181905260248201527f42656e65666963696172792055534443207472616e73666572206661696c656460448201526064016103bf565b6006546001600160a01b03166323b872dd306108e36000546001600160a01b031690565b6040517fffffffff0000000000000000000000000000000000000000000000000000000060e085901b1681526001600160a01b03928316600482015291166024820152604481018490526064016020604051808303816000875af115801561094f573d6000803e3d6000fd5b505050506040513d601f19601f820116820180604052508101906109739190610d9f565b6109bf5760405162461bcd60e51b815260206004820152601a60248201527f4f776e65722055534443207472616e73666572206661696c656400000000000060448201526064016103bf565b6005546040516340c10f1960e01b81526001600160a01b03868116600483015260326024830152909116906340c10f1990604401600060405180830381600087803b158015610a0d57600080fd5b505af1158015610a21573d6000803e3d6000fd5b50505050836001600160a01b0316857f8e6176efb8452374af8fe3c248fb188d55bdefdd985dfcbe1057dbf0a6af75118560010154604051610a6591815260200190565b60405180910390a35050505050565b610a7c610c92565b610a866000610cbf565b565b610a90610c92565b6001600160a01b038116610ae65760405162461bcd60e51b815260206004820181905260248201527f43616e6e6f7420616464207a65726f2061646472657373206173206167656e7460448201526064016103bf565b6001600160a01b03811660009081526003602052604090205460ff1615610b4f5760405162461bcd60e51b815260206004820152601b60248201527f4164647265737320697320616c726561647920616e206167656e74000000000060448201526064016103bf565b6001600160a01b038116600081815260036020526040808220805460ff19166001179055517ff68e73cec97f2d70aa641fb26e87a4383686e2efacb648f2165aeb02ac562ec59190a250565b610ba3610c92565b6001600160a01b03811660009081526003602052604090205460ff16610c0b5760405162461bcd60e51b815260206004820152601760248201527f41646472657373206973206e6f7420616e206167656e7400000000000000000060448201526064016103bf565b6001600160a01b038116600081815260036020526040808220805460ff19169055517fed9c8ad8d5a0a66898ea49d2956929c93ae2e8bd50281b2ed897c5d1a6737e0b9190a250565b610c5c610c92565b6001600160a01b038116610c8657604051631e4fbdf760e01b8152600060048201526024016103bf565b610c8f81610cbf565b50565b6000546001600160a01b03163314610a865760405163118cdaa760e01b81523360048201526024016103bf565b600080546001600160a01b0383811673ffffffffffffffffffffffffffffffffffffffff19831681178455604051919092169283917f8be0079c531659141344cd1fd0a4f28419497f9722a3daafe3b4186f6b6457e09190a35050565b600060208284031215610d2e57600080fd5b5035919050565b80356001600160a01b0381168114610d4c57600080fd5b919050565b600060208284031215610d6357600080fd5b610d6c82610d35565b9392505050565b60008060408385031215610d8657600080fd5b82359150610d9660208401610d35565b90509250929050565b600060208284031215610db157600080fd5b81518015158114610d6c57600080fd5b634e487b7160e01b600052601160045260246000fd5b600060018201610de957610de9610dc1565b5060010190565b8082028115828204841417610e0757610e07610dc1565b92915050565b600082610e2a57634e487b7160e01b600052601260045260246000fd5b500490565b81810381811115610e0757610e07610dc156fea2646970667358221220d3e32e8e685dc3e140e0194445bac1b82d931522ae8bdd09fbd14ab10d8b869164736f6c63430008140033",
  "linkReferences": {},
  "deployedLinkReferences": {}
}