{
  "_format": "hh-sol-artifact-1",
  "contractName": "PawsForHopeToken",
  "sourceName": "contracts/PawsForHopeToken.sol",
  "abi": [
    {
      "inputs": [
        {
          "internalType": "string",
          "name": "name",
          "type": "string"
        },
        {
          "internalType": "string",
          "name": "symbol",
          "type": "string"
        }
      ],
      "stateMutability": "nonpayable",
      "type": "constructor"
    },
    {
      "inputs": [
        {
          "internalType": "address",
          "name": "spender",
          "type": "address"
        },
        {
          "internalType": "uint256",
          "name": "allowance",
          "type": "uint256"
        },
        {
          "internalType": "uint256",
          "name": "needed",
          "type": "uint256"
        }
      ],
      "name": "ERC20InsufficientAllowance",
      "type": "error"
    },
    {
      "inputs": [
        {
          "internalType": "address",
          "name": "sender",
          "type": "address"
        },
        {
          "internalType": "uint256",
          "name": "balance",
          "type": "uint256"
        },
        {
          "internalType": "uint256",
          "name": "needed",
          "type": "uint256"
        }
      ],
      "name": "ERC20InsufficientBalance",
      "type": "error"
    },
    {
      "inputs": [
        {
          "internalType": "address",
          "name": "approver",
          "type": "address"
        }
      ],
      "name": "ERC20InvalidApprover",
      "type": "error"
    },
    {
      "inputs": [
        {
          "internalType": "address",
          "name": "receiver",
          "type": "address"
        }
      ],
      "name": "ERC20InvalidReceiver",
      "type": "error"
    },
    {
      "inputs": [
        {
          "internalType": "address",
          "name": "sender",
          "type": "address"
        }
      ],
      "name": "ERC20InvalidSender",
      "type": "error"
    },
    {
      "inputs": [
        {
          "internalType": "address",
          "name": "spender",
          "type": "address"
        }
      ],
      "name": "ERC20InvalidSpender",
      "type": "error"
    },
    {
      "inputs": [
        {
          "internalType": "address",
          "name": "owner",
          "type": "address"
        }
      ],
      "name": "OwnableInvalidOwner",
      "type": "error"
    },
    {
      "inputs": [
        {
          "internalType": "address",
          "name": "account",
          "type": "address"
        }
      ],
      "name": "OwnableUnauthorizedAccount",
      "type": "error"
    },
    {
      "anonymous": false,
      "inputs": [
        {
          "indexed": true,
          "internalType": "address",
          "name": "account",
          "type": "address"
        },
        {
          "indexed": false,
          "internalType": "bool",
          "name": "frozen",
          "type": "bool"
        }
      ],
      "name": "AccountFrozen",
      "type": "event"
    },
    {
      "anonymous": false,
      "inputs": [
        {
          "indexed": true,
          "internalType": "address",
          "name": "agent",
          "type": "address"
        }
      ],
      "name": "AgentAdded",
      "type": "event"
    },
    {
      "anonymous": false,
      "inputs": [
        {
          "indexed": true,
          "internalType": "address",
          "name": "agent",
          "type": "address"
        }
      ],
      "name": "AgentRemoved",
      "type": "event"
    },
    {
      "anonymous": false,
      "inputs": [
        {
          "indexed": true,
          "internalType": "address",
          "name": "owner",
          "type": "address"
        },
        {
          "indexed": true,
          "internalType": "address",
          "name": "spender",
          "type": "address"
        },
        {
          "indexed": false,
          "internalType": "uint256",
          "name": "value",
          "type": "uint256"
        }
      ],
      "name": "Approval",
      "type": "event"
    },
    {
      "anonymous": false,
      "inputs": [
        {
          "indexed": true,
          "internalType": "address",
          "name": "from",
          "type": "address"
        },
        {
          "indexed": true,
          "internalType": "address",
          "name": "to",
          "type": "address"
        },
        {
          "indexed": false,
          "internalType": "uint256",
          "name": "value",
          "type": "uint256"
        }
      ],
      "name": "ForcedTransfer",
      "type": "event"
    },
    {
      "anonymous": false,
      "inputs": [
        {
          "indexed": false,
          "internalType": "bool",
          "name": "frozen",
          "type": "bool"
        }
      ],
      "name": "GlobalFreeze",
      "type": "event"
    },
    {
      "anonymous": false,
      "inputs": [
        {
          "indexed": true,
          "internalType": "address",
          "name": "previousOwner",
          "type": "address"
        },
        {
          "indexed": true,
          "internalType": "address",
          "name": "newOwner",
          "type": "address"
        }
      ],
      "name": "OwnershipTransferred",
      "type": "event"
    },
    {
      "anonymous": false,
      "inputs": [
        {
          "indexed": true,
          "internalType": "address",
          "name": "from",
          "type": "address"
        },
        {
          "indexed": false,
          "internalType": "uint256",
          "name": "value",
          "type": "uint256"
        }
      ],
      "name": "TokensRevoked",
      "type": "event"
    },
    {
      "anonymous": false,
      "inputs": [
        {
          "indexed": true,
          "internalType": "address",
          "name": "from",
          "type": "address"
        },
        {
          "indexed": true,
          "internalType": "address",
          "name": "to",
          "type": "address"
        },
        {
          "indexed": false,
          "internalType": "uint256",
          "name": "value",
          "type": "uint256"
        }
      ],
      "name": "Transfer",
      "type": "event"
    },
    {
      "inputs": [
        {
          "internalType": "address",
          "name": "_agent",
          "type": "address"
        }
      ],
      "name": "addAgent",
      "outputs": [],
      "stateMutability": "nonpayable",
      "type": "function"
    },
    {
      "inputs": [
        {
          "internalType": "address",
          "name": "owner",
          "type": "address"
        },
        {
          "internalType": "address",
          "name": "spender",
          "type": "address"
        }
      ],
      "name": "allowance",
      "outputs": [
        {
          "internalType": "uint256",
          "name": "",
          "type": "uint256"
        }
      ],
      "stateMutability": "view",
      "type": "function"
    },
    {
      "inputs": [
        {
          "internalType": "address",
          "name": "spender",
          "type": "address"
        },
        {
          "internalType": "uint256",
          "name": "value",
          "type": "uint256"
        }
      ],
      "name": "approve",
      "outputs": [
        {
          "internalType": "bool",
          "name": "",
          "type": "bool"
        }
      ],
      "stateMutability": "nonpayable",
      "type": "function"
    },
    {
      "inputs": [
        {
          "internalType": "address",
          "name": "account",
          "type": "address"
        }
      ],
      "name": "balanceOf",
      "outputs": [
        {
          "internalType": "uint256",
          "name": "",
          "type": "uint256"
        }
      ],
      "stateMutability": "view",
      "type": "function"
    },
    {
      "inputs": [
        {
          "internalType": "address",
          "name": "from",
          "type": "address"
        },
        {
          "internalType": "uint256",
          "name": "amount",
          "type": "uint256"
        }
      ],
      "name": "burn",
      "outputs": [],
      "stateMutability": "nonpayable",
      "type": "function"
    },
    {
      "inputs": [],
      "name": "decimals",
      "outputs": [
        {
          "internalType": "uint8",
          "name": "",
          "type": "uint8"
        }
      ],
      "stateMutability": "view",
      "type": "function"
    },
    {
      "inputs": [
        {
          "internalType": "address",
          "name": "from",
          "type": "address"
        },
        {
          "internalType": "address",
          "name": "to",
          "type": "address"
        },
        {
          "internalType": "uint256",
          "name": "amount",
          "type": "uint256"
        }
      ],
      "name": "forceTransfer",
      "outputs": [],
      "stateMutability": "nonpayable",
      "type": "function"
    },
    {
      "inputs": [
        {
          "internalType": "address",
          "name": "account",
          "type": "address"
        }
      ],
      "name": "freezeAccount",
      "outputs": [],
      "stateMutability": "nonpayable",
      "type": "function"
    },
    {
      "inputs": [],
      "name": "freezeGlobal",
      "outputs": [],
      "stateMutability": "nonpayable",
      "type": "function"
    },
    {
      "inputs": [
        {
          "internalType": "address",
          "name": "to",
          "type": "address"
        },
        {
          "internalType": "uint256",
          "name": "amount",
          "type": "uint256"
        }
      ],
      "name": "mint",
      "outputs": [],
      "stateMutability": "nonpayable",
      "type": "function"
    },
    {
      "inputs": [],
      "name": "name",
      "outputs": [
        {
          "internalType": "string",
          "name": "",
          "type": "string"
        }
      ],
      "stateMutability": "view",
      "type": "function"
    },
    {
      "inputs": [],
      "name": "owner",
      "outputs": [
        {
          "internalType": "address",
          "name": "",
          "type": "address"
        }
      ],
      "stateMutability": "view",
      "type": "function"
    },
    {
      "inputs": [],
      "name": "redeemAddressContract",
      "outputs": [
        {
          "internalType": "address",
          "name": "",
          "type": "address"
        }
      ],
      "stateMutability": "view",
      "type": "function"
    },
    {
      "inputs": [
        {
          "internalType": "address",
          "name": "_agent",
          "type": "address"
        }
      ],
      "name": "removeAgent",
      "outputs": [],
      "stateMutability": "nonpayable",
      "type": "function"
    },
    {
      "inputs": [],
      "name": "renounceOwnership",
      "outputs": [],
      "stateMutability": "nonpayable",
      "type": "function"
    },
    {
      "inputs": [
        {
          "internalType": "address",
          "name": "from",
          "type": "address"
        },
        {
          "internalType": "uint256",
          "name": "amount",
          "type": "uint256"
        }
      ],
      "name": "revokeTokens",
      "outputs": [],
      "stateMutability": "nonpayable",
      "type": "function"
    },
    {
      "inputs": [
        {
          "internalType": "address",
          "name": "_redeemAddress",
          "type": "address"
        }
      ],
      "name": "setRedeemAddressContract",
      "outputs": [],
      "stateMutability": "nonpayable",
      "type": "function"
    },
    {
      "inputs": [],
      "name": "symbol",
      "outputs": [
        {
          "internalType": "string",
          "name": "",
          "type": "string"
        }
      ],
      "stateMutability": "view",
      "type": "function"
    },
    {
      "inputs": [],
      "name": "totalSupply",
      "outputs": [
        {
          "internalType": "uint256",
          "name": "",
          "type": "uint256"
        }
      ],
      "stateMutability": "view",
      "type": "function"
    },
    {
      "inputs": [
        {
          "internalType": "address",
          "name": "to",
          "type": "address"
        },
        {
          "internalType": "uint256",
          "name": "amount",
          "type": "uint256"
        }
      ],
      "name": "transfer",
      "outputs": [
        {
          "internalType": "bool",
          "name": "",
          "type": "bool"
        }
      ],
      "stateMutability": "nonpayable",
      "type": "function"
    },
    {
      "inputs": [
        {
          "internalType": "address",
          "name": "from",
          "type": "address"
        },
        {
          "internalType": "address",
          "name": "to",
          "type": "address"
        },
        {
          "internalType": "uint256",
          "name": "amount",
          "type": "uint256"
        }
      ],
      "name": "transferFrom",
      "outputs": [
        {
          "internalType": "bool",
          "name": "",
          "type": "bool"
        }
      ],
      "stateMutability": "nonpayable",
      "type": "function"
    },
    {
      "inputs": [
        {
          "internalType": "address",
          "name": "newOwner",
          "type": "address"
        }
      ],
      "name": "transferOwnership",
      "outputs": [],
      "stateMutability": "nonpayable",
      "type": "function"
    },
    {
      "inputs": [
        {
          "internalType": "address",
          "name": "account",
          "type": "address"
        }
      ],
      "name": "unfreezeAccount",
      "outputs": [],
      "stateMutability": "nonpayable",
      "type": "function"
    },
    {
      "inputs": [],
      "name": "unfreezeGlobal",
      "outputs": [],
      "stateMutability": "nonpayable",
      "type": "function"
    }
  ],
  "bytecode": "0x60806040523480156200001157600080fd5b50604051620018a6380380620018a68339810160408190526200003491620001b1565b3382826003620000458382620002aa565b506004620000548282620002aa565b5050506001600160a01b0381166200008657604051631e4fbdf760e01b81526000600482015260240160405180910390fd5b62000091816200009a565b50505062000376565b600580546001600160a01b038381166001600160a01b0319831681179093556040519116919082907f8be0079c531659141344cd1fd0a4f28419497f9722a3daafe3b4186f6b6457e090600090a35050565b634e487b7160e01b600052604160045260246000fd5b600082601f8301126200011457600080fd5b81516001600160401b0380821115620001315762000131620000ec565b604051601f8301601f19908116603f011681019082821181831017156200015c576200015c620000ec565b816040528381526020925086838588010111156200017957600080fd5b600091505b838210156200019d57858201830151818301840152908201906200017e565b600093810190920192909252949350505050565b60008060408385031215620001c557600080fd5b82516001600160401b0380821115620001dd57600080fd5b620001eb8683870162000102565b935060208501519150808211156200020257600080fd5b50620002118582860162000102565b9150509250929050565b600181811c908216806200023057607f821691505b6020821081036200025157634e487b7160e01b600052602260045260246000fd5b50919050565b601f821115620002a557600081815260208120601f850160051c81016020861015620002805750805b601f850160051c820191505b81811015620002a1578281556001016200028c565b5050505b505050565b81516001600160401b03811115620002c657620002c6620000ec565b620002de81620002d784546200021b565b8462000257565b602080601f831160018114620003165760008415620002fd5750858301515b600019600386901b1c1916600185901b178555620002a1565b600085815260208120601f198616915b82811015620003475788860151825594840194600190910190840162000326565b5085821015620003665787850151600019600388901b60f8161c191681555b5050505050600190811b01905550565b61152080620003866000396000f3fe608060405234801561001057600080fd5b50600436106101985760003560e01c806384e79842116100e3578063a9059cbb1161008c578063dd62ed3e11610066578063dd62ed3e14610345578063f26c159f1461037e578063f2fde38b1461039157600080fd5b8063a9059cbb14610312578063ac5f1c9f14610325578063bf7ff0481461033d57600080fd5b806397a6278e116100bd57806397a6278e146102d95780639dc29fac146102ec578063a1f98b93146102ff57600080fd5b806384e79842146102995780638da5cb5b146102ac57806395d89b41146102d157600080fd5b806340c10f1911610145578063715018a61161011f578063715018a61461026b578063721a37d214610273578063788649ea1461028657600080fd5b806340c10f191461022757806349fc73191461023a57806370a082311461024257600080fd5b806323b872dd1161017657806323b872dd146101f0578063313ce5671461020357806333bebb771461021257600080fd5b806306fdde031461019d578063095ea7b3146101bb57806318160ddd146101de575b600080fd5b6101a56103a4565b6040516101b29190611371565b60405180910390f35b6101ce6101c93660046113db565b610436565b60405190151581526020016101b2565b6002545b6040519081526020016101b2565b6101ce6101fe366004611405565b610450565b604051601281526020016101b2565b610225610220366004611405565b6104e2565b005b6102256102353660046113db565b6106c4565b61022561073d565b6101e2610250366004611441565b6001600160a01b031660009081526020819052604090205490565b6102256107ee565b6102256102813660046113db565b610802565b610225610294366004611441565b610994565b6102256102a7366004611441565b610b13565b6005546001600160a01b03165b6040516001600160a01b0390911681526020016101b2565b6101a5610b67565b6102256102e7366004611441565b610b76565b6102256102fa3660046113db565b610bc7565b61022561030d366004611441565b610c3c565b6101ce6103203660046113db565b610cd9565b6008546102b99061010090046001600160a01b031681565b610225610d64565b6101e261035336600461145c565b6001600160a01b03918216600090815260016020908152604080832093909416825291909152205490565b61022561038c366004611441565b610e0a565b61022561039f366004611441565b610f22565b6060600380546103b39061148f565b80601f01602080910402602001604051908101604052809291908181526020018280546103df9061148f565b801561042c5780601f106104015761010080835404028352916020019161042c565b820191906000526020600020905b81548152906001019060200180831161040f57829003601f168201915b5050505050905090565b600033610444818585610f60565b60019150505b92915050565b6008546000906001600160a01b0384811661010090920416146104cf5760405162461bcd60e51b815260206004820152602c60248201527f5472616e736665727320617265206f6e6c7920616c6c6f77656420746f20726560448201526b6465656d206164647265737360a01b60648201526084015b60405180910390fd5b6104da848484610f72565b949350505050565b3360009081526006602052604090205460ff1661054d5760405162461bcd60e51b815260206004820152602360248201527f4f6e6c79206167656e74732063616e20706572666f726d20746869732061637460448201526234b7b760e91b60648201526084016104c6565b6001600160a01b0383166105a35760405162461bcd60e51b815260206004820152601a60248201527f5472616e736665722066726f6d207a65726f206164647265737300000000000060448201526064016104c6565b6001600160a01b0382166105f95760405162461bcd60e51b815260206004820152601860248201527f5472616e7366657220746f207a65726f2061646472657373000000000000000060448201526064016104c6565b80610619846001600160a01b031660009081526020819052604090205490565b10156106675760405162461bcd60e51b815260206004820152601460248201527f496e73756666696369656e742062616c616e636500000000000000000000000060448201526064016104c6565b610672838383610f96565b816001600160a01b0316836001600160a01b03167f7b3ce50c216d2ccf9919c6b9f1bfb33f0350a33010f188750b4af38e00448138836040516106b791815260200190565b60405180910390a3505050565b3360009081526006602052604090205460ff1661072f5760405162461bcd60e51b815260206004820152602360248201527f4f6e6c79206167656e74732063616e20706572666f726d20746869732061637460448201526234b7b760e91b60648201526084016104c6565b6107398282610ff5565b5050565b3360009081526006602052604090205460ff166107a85760405162461bcd60e51b815260206004820152602360248201527f4f6e6c79206167656e74732063616e20706572666f726d20746869732061637460448201526234b7b760e91b60648201526084016104c6565b6008805460ff191660019081179091556040519081527fee2c272f4a21f65428f2e80154e4e11f33a295b066693d03ac5f8a0f723723c5906020015b60405180910390a1565b6107f661102b565b6108006000611058565b565b3360009081526006602052604090205460ff1661086d5760405162461bcd60e51b815260206004820152602360248201527f4f6e6c79206167656e74732063616e20706572666f726d20746869732061637460448201526234b7b760e91b60648201526084016104c6565b6001600160a01b0382166108c35760405162461bcd60e51b815260206004820152601860248201527f5265766f6b652066726f6d207a65726f2061646472657373000000000000000060448201526064016104c6565b806108e3836001600160a01b031660009081526020819052604090205490565b10156109315760405162461bcd60e51b815260206004820152601460248201527f496e73756666696369656e742062616c616e636500000000000000000000000060448201526064016104c6565b61094d826109476005546001600160a01b031690565b83610f96565b816001600160a01b03167fb73c49a3a37a7aca291ba0ceaa41657012def406106a7fc386888f0f66e941cf8260405161098891815260200190565b60405180910390a25050565b3360009081526006602052604090205460ff166109ff5760405162461bcd60e51b815260206004820152602360248201527f4f6e6c79206167656e74732063616e20706572666f726d20746869732061637460448201526234b7b760e91b60648201526084016104c6565b6001600160a01b038116610a555760405162461bcd60e51b815260206004820152601c60248201527f43616e6e6f7420756e667265657a65207a65726f20616464726573730000000060448201526064016104c6565b6001600160a01b03811660009081526007602052604090205460ff16610abd5760405162461bcd60e51b815260206004820152601560248201527f4163636f756e74206973206e6f742066726f7a656e000000000000000000000060448201526064016104c6565b6001600160a01b0381166000818152600760209081526040808320805460ff19169055519182527fa33e6b076d391e96626483b30e365719f79f1d6594aff6587649ffd6c82ed7fa91015b60405180910390a250565b610b1b61102b565b6001600160a01b038116600081815260066020526040808220805460ff19166001179055517ff68e73cec97f2d70aa641fb26e87a4383686e2efacb648f2165aeb02ac562ec59190a250565b6060600480546103b39061148f565b610b7e61102b565b6001600160a01b038116600081815260066020526040808220805460ff19169055517fed9c8ad8d5a0a66898ea49d2956929c93ae2e8bd50281b2ed897c5d1a6737e0b9190a250565b3360009081526006602052604090205460ff16610c325760405162461bcd60e51b815260206004820152602360248201527f4f6e6c79206167656e74732063616e20706572666f726d20746869732061637460448201526234b7b760e91b60648201526084016104c6565b61073982826110c2565b610c4461102b565b6001600160a01b038116610c9a5760405162461bcd60e51b815260206004820152601760248201527f43616e6e6f7420736574207a65726f206164647265737300000000000000000060448201526064016104c6565b600880546001600160a01b03909216610100027fffffffffffffffffffffff0000000000000000000000000000000000000000ff909216919091179055565b6008546000906001600160a01b038481166101009092041614610d535760405162461bcd60e51b815260206004820152602c60248201527f5472616e736665727320617265206f6e6c7920616c6c6f77656420746f20726560448201526b6465656d206164647265737360a01b60648201526084016104c6565b610d5d83836110f8565b9392505050565b3360009081526006602052604090205460ff16610dcf5760405162461bcd60e51b815260206004820152602360248201527f4f6e6c79206167656e74732063616e20706572666f726d20746869732061637460448201526234b7b760e91b60648201526084016104c6565b6008805460ff19169055604051600081527fee2c272f4a21f65428f2e80154e4e11f33a295b066693d03ac5f8a0f723723c5906020016107e4565b3360009081526006602052604090205460ff16610e755760405162461bcd60e51b815260206004820152602360248201527f4f6e6c79206167656e74732063616e20706572666f726d20746869732061637460448201526234b7b760e91b60648201526084016104c6565b6001600160a01b038116610ecb5760405162461bcd60e51b815260206004820152601a60248201527f43616e6e6f7420667265657a65207a65726f206164647265737300000000000060448201526064016104c6565b6001600160a01b038116600081815260076020908152604091829020805460ff1916600190811790915591519182527fa33e6b076d391e96626483b30e365719f79f1d6594aff6587649ffd6c82ed7fa9101610b08565b610f2a61102b565b6001600160a01b038116610f5457604051631e4fbdf760e01b8152600060048201526024016104c6565b610f5d81611058565b50565b610f6d8383836001611106565b505050565b600033610f808582856111dc565b610f8b858585610f96565b506001949350505050565b6001600160a01b038316610fc057604051634b637e8f60e11b8152600060048201526024016104c6565b6001600160a01b038216610fea5760405163ec442f0560e01b8152600060048201526024016104c6565b610f6d838383611254565b6001600160a01b03821661101f5760405163ec442f0560e01b8152600060048201526024016104c6565b61073960008383611254565b6005546001600160a01b031633146108005760405163118cdaa760e01b81523360048201526024016104c6565b600580546001600160a01b038381167fffffffffffffffffffffffff0000000000000000000000000000000000000000831681179093556040519116919082907f8be0079c531659141344cd1fd0a4f28419497f9722a3daafe3b4186f6b6457e090600090a35050565b6001600160a01b0382166110ec57604051634b637e8f60e11b8152600060048201526024016104c6565b61073982600083611254565b600033610444818585610f96565b6001600160a01b0384166111305760405163e602df0560e01b8152600060048201526024016104c6565b6001600160a01b03831661115a57604051634a1406b160e11b8152600060048201526024016104c6565b6001600160a01b03808516600090815260016020908152604080832093871683529290522082905580156111d657826001600160a01b0316846001600160a01b03167f8c5be1e5ebec7d5bd14f71427d1e84f3dd0314c0f7b2291e5b200ac8c7c3b925846040516111cd91815260200190565b60405180910390a35b50505050565b6001600160a01b0383811660009081526001602090815260408083209386168352929052205460001981146111d6578181101561124557604051637dc7a0d960e11b81526001600160a01b038416600482015260248101829052604481018390526064016104c6565b6111d684848484036000611106565b6001600160a01b03831661127f57806002600082825461127491906114c9565b909155506112f19050565b6001600160a01b038316600090815260208190526040902054818110156112d25760405163391434e360e21b81526001600160a01b038516600482015260248101829052604481018390526064016104c6565b6001600160a01b03841660009081526020819052604090209082900390555b6001600160a01b03821661130d5760028054829003905561132c565b6001600160a01b03821660009081526020819052604090208054820190555b816001600160a01b0316836001600160a01b03167fddf252ad1be2c89b69c2b068fc378daa952ba7f163c4a11628f55a4df523b3ef836040516106b791815260200190565b600060208083528351808285015260005b8181101561139e57858101830151858201604001528201611382565b506000604082860101526040601f19601f8301168501019250505092915050565b80356001600160a01b03811681146113d657600080fd5b919050565b600080604083850312156113ee57600080fd5b6113f7836113bf565b946020939093013593505050565b60008060006060848603121561141a57600080fd5b611423846113bf565b9250611431602085016113bf565b9150604084013590509250925092565b60006020828403121561145357600080fd5b610d5d826113bf565b6000806040838503121561146f57600080fd5b611478836113bf565b9150611486602084016113bf565b90509250929050565b600181811c908216806114a357607f821691505b6020821081036114c357634e487b7160e01b600052602260045260246000fd5b50919050565b8082018082111561044a57634e487b7160e01b600052601160045260246000fdfea2646970667358221220dee6cd5c5386f3c2d9697c78ed919604d00fec2b95af743cf01a7ec44f786b3964736f6c63430008140033",
  "linkReferences": {},
  "deployedLinkReferences": {}
}