{
  "_format": "hh-sol-artifact-1",
  "contractName": "Redeem",
  "sourceName": "contracts/Redeem.sol",
  "abi": [
    {
      "inputs": [
        {
          "internalType": "address",
          "name": "_registerUsers",
          "type": "address"
        },
        {
          "internalType": "address",
          "name": "_tokenPawsForHopeToken",
          "type": "address"
        }
      ],
      "stateMutability": "nonpayable",
      "type": "constructor"
    },
    {
      "inputs": [
        {
          "internalType": "address",
          "name": "owner",
          "type": "address"
        }
      ],
      "name": "OwnableInvalidOwner",
      "type": "error"
    },
    {
      "inputs": [
        {
          "internalType": "address",
          "name": "account",
          "type": "address"
        }
      ],
      "name": "OwnableUnauthorizedAccount",
      "type": "error"
    },
    {
      "anonymous": false,
      "inputs": [
        {
          "indexed": true,
          "internalType": "address",
          "name": "agent",
          "type": "address"
        }
      ],
      "name": "AgentAdded",
      "type": "event"
    },
    {
      "anonymous": false,
      "inputs": [
        {
          "indexed": true,
          "internalType": "address",
          "name": "agent",
          "type": "address"
        }
      ],
      "name": "AgentRemoved",
      "type": "event"
    },
    {
      "anonymous": false,
      "inputs": [
        {
          "indexed": true,
          "internalType": "uint256",
          "name": "postId",
          "type": "uint256"
        },
        {
          "indexed": true,
          "internalType": "address",
          "name": "redeemer",
          "type": "address"
        }
      ],
      "name": "ItemRedeemed",
      "type": "event"
    },
    {
      "anonymous": false,
      "inputs": [
        {
          "indexed": true,
          "internalType": "address",
          "name": "previousOwner",
          "type": "address"
        },
        {
          "indexed": true,
          "internalType": "address",
          "name": "newOwner",
          "type": "address"
        }
      ],
      "name": "OwnershipTransferred",
      "type": "event"
    },
    {
      "anonymous": false,
      "inputs": [
        {
          "indexed": true,
          "internalType": "uint256",
          "name": "postId",
          "type": "uint256"
        }
      ],
      "name": "PostClosed",
      "type": "event"
    },
    {
      "anonymous": false,
      "inputs": [
        {
          "indexed": true,
          "internalType": "uint256",
          "name": "postId",
          "type": "uint256"
        },
        {
          "indexed": true,
          "internalType": "address",
          "name": "creator",
          "type": "address"
        },
        {
          "indexed": false,
          "internalType": "uint256",
          "name": "stock",
          "type": "uint256"
        },
        {
          "indexed": false,
          "internalType": "uint256",
          "name": "price",
          "type": "uint256"
        }
      ],
      "name": "PostCreated",
      "type": "event"
    },
    {
      "inputs": [
        {
          "internalType": "address",
          "name": "_agent",
          "type": "address"
        }
      ],
      "name": "addAgent",
      "outputs": [],
      "stateMutability": "nonpayable",
      "type": "function"
    },
    {
      "inputs": [
        {
          "internalType": "uint256",
          "name": "_postId",
          "type": "uint256"
        }
      ],
      "name": "closePost",
      "outputs": [],
      "stateMutability": "nonpayable",
      "type": "function"
    },
    {
      "inputs": [
        {
          "internalType": "uint256",
          "name": "_stock",
          "type": "uint256"
        },
        {
          "internalType": "uint256",
          "name": "_price",
          "type": "uint256"
        }
      ],
      "name": "createPost",
      "outputs": [],
      "stateMutability": "nonpayable",
      "type": "function"
    },
    {
      "inputs": [
        {
          "internalType": "address",
          "name": "_address",
          "type": "address"
        }
      ],
      "name": "isAgent",
      "outputs": [
        {
          "internalType": "bool",
          "name": "",
          "type": "bool"
        }
      ],
      "stateMutability": "view",
      "type": "function"
    },
    {
      "inputs": [],
      "name": "owner",
      "outputs": [
        {
          "internalType": "address",
          "name": "",
          "type": "address"
        }
      ],
      "stateMutability": "view",
      "type": "function"
    },
    {
      "inputs": [
        {
          "internalType": "uint256",
          "name": "",
          "type": "uint256"
        }
      ],
      "name": "posts",
      "outputs": [
        {
          "internalType": "address",
          "name": "creator",
          "type": "address"
        },
        {
          "internalType": "uint256",
          "name": "stock",
          "type": "uint256"
        },
        {
          "internalType": "uint256",
          "name": "price",
          "type": "uint256"
        },
        {
          "internalType": "bool",
          "name": "isOpen",
          "type": "bool"
        }
      ],
      "stateMutability": "view",
      "type": "function"
    },
    {
      "inputs": [
        {
          "internalType": "uint256",
          "name": "_postId",
          "type": "uint256"
        }
      ],
      "name": "redeemItem",
      "outputs": [],
      "stateMutability": "nonpayable",
      "type": "function"
    },
    {
      "inputs": [],
      "name": "registerUsers",
      "outputs": [
        {
          "internalType": "contract RegisterUsers",
          "name": "",
          "type": "address"
        }
      ],
      "stateMutability": "view",
      "type": "function"
    },
    {
      "inputs": [
        {
          "internalType": "address",
          "name": "_agent",
          "type": "address"
        }
      ],
      "name": "removeAgent",
      "outputs": [],
      "stateMutability": "nonpayable",
      "type": "function"
    },
    {
      "inputs": [],
      "name": "renounceOwnership",
      "outputs": [],
      "stateMutability": "nonpayable",
      "type": "function"
    },
    {
      "inputs": [],
      "name": "tokenPawsForHopeToken",
      "outputs": [
        {
          "internalType": "contract PawsForHopeToken",
          "name": "",
          "type": "address"
        }
      ],
      "stateMutability": "view",
      "type": "function"
    },
    {
      "inputs": [
        {
          "internalType": "address",
          "name": "newOwner",
          "type": "address"
        }
      ],
      "name": "transferOwnership",
      "outputs": [],
      "stateMutability": "nonpayable",
      "type": "function"
    }
  ],
  "bytecode": "0x6080604052600060015534801561001557600080fd5b50604051610f37380380610f37833981016040819052610034916101bc565b338061005b57604051631e4fbdf760e01b8152600060048201526024015b60405180910390fd5b61006481610150565b506001600160a01b0382166100bb5760405162461bcd60e51b815260206004820152601d60248201527f496e76616c6964205265676973746572557365727320616464726573730000006044820152606401610052565b6001600160a01b03811661011f5760405162461bcd60e51b815260206004820152602560248201527f496e76616c696420746f6b656e50617773466f72486f7065546f6b656e206164604482015264647265737360d81b6064820152608401610052565b600280546001600160a01b039384166001600160a01b031991821617909155600380549290931691161790556101ef565b600080546001600160a01b038381166001600160a01b0319831681178455604051919092169283917f8be0079c531659141344cd1fd0a4f28419497f9722a3daafe3b4186f6b6457e09190a35050565b80516001600160a01b03811681146101b757600080fd5b919050565b600080604083850312156101cf57600080fd5b6101d8836101a0565b91506101e6602084016101a0565b90509250929050565b610d39806101fe6000396000f3fe608060405234801561001057600080fd5b50600436106100d45760003560e01c80638da5cb5b11610081578063e70bea1d1161005b578063e70bea1d1461021a578063f2fde38b1461022d578063fb598f871461024057600080fd5b80638da5cb5b146101e3578063972481fe146101f457806397a6278e1461020757600080fd5b80633ef02d13116100b25780633ef02d131461019d578063715018a6146101c857806384e79842146101d057600080fd5b80630b1e7f83146100d95780631c26dc231461014c5780631ffbb06414610161575b600080fd5b61011b6100e7366004610c17565b60056020526000908152604090208054600182015460028301546003909301546001600160a01b0390921692909160ff1684565b604080516001600160a01b039095168552602085019390935291830152151560608201526080015b60405180910390f35b61015f61015a366004610c17565b610253565b005b61018d61016f366004610c30565b6001600160a01b031660009081526004602052604090205460ff1690565b6040519015158152602001610143565b6003546101b0906001600160a01b031681565b6040516001600160a01b039091168152602001610143565b61015f6105ea565b61015f6101de366004610c30565b6105fe565b6000546001600160a01b03166101b0565b6002546101b0906001600160a01b031681565b61015f610215366004610c30565b610711565b61015f610228366004610c17565b6107ca565b61015f61023b366004610c30565b610900565b61015f61024e366004610c60565b61093e565b600254604051631f5bdf5d60e01b81523360048201526001600160a01b0390911690631f5bdf5d90602401602060405180830381865afa15801561029b573d6000803e3d6000fd5b505050506040513d601f19601f820116820180604052508101906102bf9190610c82565b80610331575060025460405163daf60b7160e01b81523360048201526001600160a01b039091169063daf60b7190602401602060405180830381865afa15801561030d573d6000803e3d6000fd5b505050506040513d601f19601f820116820180604052508101906103319190610c82565b6103a85760405162461bcd60e51b815260206004820152602c60248201527f4f6e6c792072656769737465726564207573657273206f7220656e746974696560448201527f732063616e2072656465656d000000000000000000000000000000000000000060648201526084015b60405180910390fd5b6000818152600560205260409020600381015460ff1661040a5760405162461bcd60e51b815260206004820152600e60248201527f506f737420697320636c6f736564000000000000000000000000000000000000604482015260640161039f565b600081600101541161045e5760405162461bcd60e51b815260206004820152601660248201527f4e6f206974656d73206c65667420696e2073746f636b00000000000000000000604482015260640161039f565b60028101546003546040516370a0823160e01b81523360048201526001600160a01b03909116906370a0823190602401602060405180830381865afa1580156104ab573d6000803e3d6000fd5b505050506040513d601f19601f820116820180604052508101906104cf9190610ca4565b101561051d5760405162461bcd60e51b815260206004820152601a60248201527f496e73756666696369656e7420746f6b656e2062616c616e6365000000000000604482015260640161039f565b60018101805490600061052f83610cd3565b9091555050600354815460028301546040516323b872dd60e01b81523360048201526001600160a01b03928316602482015260448101919091529116906323b872dd906064016020604051808303816000875af1158015610594573d6000803e3d6000fd5b505050506040513d601f19601f820116820180604052508101906105b89190610c82565b50604051339083907fb1eb15dc4b5de6600193c9844a13fce51a803945e8af89faed0f58974b03e6c690600090a35050565b6105f2610b8d565b6105fc6000610bba565b565b610606610b8d565b6001600160a01b03811661065c5760405162461bcd60e51b815260206004820181905260248201527f43616e6e6f7420616464207a65726f2061646472657373206173206167656e74604482015260640161039f565b6001600160a01b03811660009081526004602052604090205460ff16156106c55760405162461bcd60e51b815260206004820152601b60248201527f4164647265737320697320616c726561647920616e206167656e740000000000604482015260640161039f565b6001600160a01b038116600081815260046020526040808220805460ff19166001179055517ff68e73cec97f2d70aa641fb26e87a4383686e2efacb648f2165aeb02ac562ec59190a250565b610719610b8d565b6001600160a01b03811660009081526004602052604090205460ff166107815760405162461bcd60e51b815260206004820152601760248201527f41646472657373206973206e6f7420616e206167656e74000000000000000000604482015260640161039f565b6001600160a01b038116600081815260046020526040808220805460ff19169055517fed9c8ad8d5a0a66898ea49d2956929c93ae2e8bd50281b2ed897c5d1a6737e0b9190a250565b6000818152600560205260409020600381015460ff1661082c5760405162461bcd60e51b815260206004820152601660248201527f506f737420697320616c726561647920636c6f73656400000000000000000000604482015260640161039f565b80546001600160a01b031633148061085357503360009081526004602052604090205460ff165b6108c55760405162461bcd60e51b815260206004820152602660248201527f4f6e6c792063726561746f72206f72206167656e74732063616e20636c6f736560448201527f20706f7374730000000000000000000000000000000000000000000000000000606482015260840161039f565b60038101805460ff1916905560405182907fc8c5b84ad16852871e3c961bc15ae506c72fcd803553d30e26384d95705f6d0490600090a25050565b610908610b8d565b6001600160a01b03811661093257604051631e4fbdf760e01b81526000600482015260240161039f565b61093b81610bba565b50565b60025460405163daf60b7160e01b81523360048201526001600160a01b039091169063daf60b7190602401602060405180830381865afa158015610986573d6000803e3d6000fd5b505050506040513d601f19601f820116820180604052508101906109aa9190610c82565b610a1c5760405162461bcd60e51b815260206004820152602960248201527f4f6e6c79207265676973746572656420656e7469746965732063616e2063726560448201527f61746520706f7374730000000000000000000000000000000000000000000000606482015260840161039f565b60008211610a6c5760405162461bcd60e51b815260206004820152601c60248201527f53746f636b206d7573742062652067726561746572207468616e203000000000604482015260640161039f565b60008111610abc5760405162461bcd60e51b815260206004820152601c60248201527f5072696365206d7573742062652067726561746572207468616e203000000000604482015260640161039f565b6001805460009182610acd83610cea565b90915550604080516080810182523380825260208083018881528385018881526001606086018181526000898152600586528890209651875473ffffffffffffffffffffffffffffffffffffffff19166001600160a01b03909116178755925190860155516002850155516003909301805460ff191693151593909317909255825187815291820186905292935083917fa449010b893eaee00a1f98d63e14bb12546d5fe4738079a532ac6a1536153de6910160405180910390a3505050565b6000546001600160a01b031633146105fc5760405163118cdaa760e01b815233600482015260240161039f565b600080546001600160a01b0383811673ffffffffffffffffffffffffffffffffffffffff19831681178455604051919092169283917f8be0079c531659141344cd1fd0a4f28419497f9722a3daafe3b4186f6b6457e09190a35050565b600060208284031215610c2957600080fd5b5035919050565b600060208284031215610c4257600080fd5b81356001600160a01b0381168114610c5957600080fd5b9392505050565b60008060408385031215610c7357600080fd5b50508035926020909101359150565b600060208284031215610c9457600080fd5b81518015158114610c5957600080fd5b600060208284031215610cb657600080fd5b5051919050565b634e487b7160e01b600052601160045260246000fd5b600081610ce257610ce2610cbd565b506000190190565b600060018201610cfc57610cfc610cbd565b506001019056fea2646970667358221220171fea0cd184156f8c7020e75d632a291c7e45d363a9a166ec50a8226f08d35564736f6c63430008140033",
  "linkReferences": {},
  "deployedLinkReferences": {}
}