{
  "_format": "hh-sol-artifact-1",
  "contractName": "RegisterUsers",
  "sourceName": "contracts/RegisterUsers.sol",
  "abi": [
    {
      "inputs": [],
      "stateMutability": "nonpayable",
      "type": "constructor"
    },
    {
      "inputs": [
        {
          "internalType": "address",
          "name": "owner",
          "type": "address"
        }
      ],
      "name": "OwnableInvalidOwner",
      "type": "error"
    },
    {
      "inputs": [
        {
          "internalType": "address",
          "name": "account",
          "type": "address"
        }
      ],
      "name": "OwnableUnauthorizedAccount",
      "type": "error"
    },
    {
      "anonymous": false,
      "inputs": [
        {
          "indexed": true,
          "internalType": "address",
          "name": "agent",
          "type": "address"
        }
      ],
      "name": "AgentAdded",
      "type": "event"
    },
    {
      "anonymous": false,
      "inputs": [
        {
          "indexed": true,
          "internalType": "address",
          "name": "agent",
          "type": "address"
        }
      ],
      "name": "AgentRemoved",
      "type": "event"
    },
    {
      "anonymous": false,
      "inputs": [
        {
          "indexed": true,
          "internalType": "address",
          "name": "previousOwner",
          "type": "address"
        },
        {
          "indexed": true,
          "internalType": "address",
          "name": "newOwner",
          "type": "address"
        }
      ],
      "name": "OwnershipTransferred",
      "type": "event"
    },
    {
      "anonymous": false,
      "inputs": [
        {
          "indexed": true,
          "internalType": "address",
          "name": "user",
          "type": "address"
        },
        {
          "indexed": false,
          "internalType": "bool",
          "name": "isEntity",
          "type": "bool"
        }
      ],
      "name": "UserRegistered",
      "type": "event"
    },
    {
      "anonymous": false,
      "inputs": [
        {
          "indexed": true,
          "internalType": "address",
          "name": "user",
          "type": "address"
        },
        {
          "indexed": false,
          "internalType": "bool",
          "name": "isEntity",
          "type": "bool"
        }
      ],
      "name": "UserRemoved",
      "type": "event"
    },
    {
      "inputs": [
        {
          "internalType": "address",
          "name": "_agent",
          "type": "address"
        }
      ],
      "name": "addAgent",
      "outputs": [],
      "stateMutability": "nonpayable",
      "type": "function"
    },
    {
      "inputs": [
        {
          "internalType": "address",
          "name": "_address",
          "type": "address"
        }
      ],
      "name": "isAgent",
      "outputs": [
        {
          "internalType": "bool",
          "name": "",
          "type": "bool"
        }
      ],
      "stateMutability": "view",
      "type": "function"
    },
    {
      "inputs": [
        {
          "internalType": "address",
          "name": "_address",
          "type": "address"
        }
      ],
      "name": "isRegisteredEntity",
      "outputs": [
        {
          "internalType": "bool",
          "name": "",
          "type": "bool"
        }
      ],
      "stateMutability": "view",
      "type": "function"
    },
    {
      "inputs": [
        {
          "internalType": "address",
          "name": "_address",
          "type": "address"
        }
      ],
      "name": "isRegisteredUser",
      "outputs": [
        {
          "internalType": "bool",
          "name": "",
          "type": "bool"
        }
      ],
      "stateMutability": "view",
      "type": "function"
    },
    {
      "inputs": [],
      "name": "owner",
      "outputs": [
        {
          "internalType": "address",
          "name": "",
          "type": "address"
        }
      ],
      "stateMutability": "view",
      "type": "function"
    },
    {
      "inputs": [
        {
          "internalType": "address",
          "name": "_entity",
          "type": "address"
        }
      ],
      "name": "registerEntity",
      "outputs": [],
      "stateMutability": "nonpayable",
      "type": "function"
    },
    {
      "inputs": [
        {
          "internalType": "address",
          "name": "_user",
          "type": "address"
        }
      ],
      "name": "registerUser",
      "outputs": [],
      "stateMutability": "nonpayable",
      "type": "function"
    },
    {
      "inputs": [
        {
          "internalType": "address",
          "name": "_agent",
          "type": "address"
        }
      ],
      "name": "removeAgent",
      "outputs": [],
      "stateMutability": "nonpayable",
      "type": "function"
    },
    {
      "inputs": [
        {
          "internalType": "address",
          "name": "_entity",
          "type": "address"
        }
      ],
      "name": "removeEntity",
      "outputs": [],
      "stateMutability": "nonpayable",
      "type": "function"
    },
    {
      "inputs": [
        {
          "internalType": "address",
          "name": "_user",
          "type": "address"
        }
      ],
      "name": "removeUser",
      "outputs": [],
      "stateMutability": "nonpayable",
      "type": "function"
    },
    {
      "inputs": [],
      "name": "renounceOwnership",
      "outputs": [],
      "stateMutability": "nonpayable",
      "type": "function"
    },
    {
      "inputs": [
        {
          "internalType": "address",
          "name": "newOwner",
          "type": "address"
        }
      ],
      "name": "transferOwnership",
      "outputs": [],
      "stateMutability": "nonpayable",
      "type": "function"
    }
  ],
  "bytecode": "0x608060405234801561001057600080fd5b50338061003757604051631e4fbdf760e01b81526000600482015260240160405180910390fd5b61004081610046565b50610096565b600080546001600160a01b038381166001600160a01b0319831681178455604051919092169283917f8be0079c531659141344cd1fd0a4f28419497f9722a3daafe3b4186f6b6457e09190a35050565b610c1d806100a56000396000f3fe608060405234801561001057600080fd5b50600436106100d45760003560e01c806397a6278e11610081578063dd1829961161005b578063dd182996146101e3578063ebb99431146101f6578063f2fde38b1461020957600080fd5b806397a6278e1461019157806398575188146101a4578063daf60b71146101b757600080fd5b8063715018a6116100b2578063715018a61461015b57806384e79842146101635780638da5cb5b1461017657600080fd5b80631f5bdf5d146100d95780631ffbb0641461011a5780632199d5cd14610146575b600080fd5b6101056100e7366004610bb7565b6001600160a01b031660009081526002602052604090205460ff1690565b60405190151581526020015b60405180910390f35b610105610128366004610bb7565b6001600160a01b031660009081526001602052604090205460ff1690565b610159610154366004610bb7565b61021c565b005b610159610419565b610159610171366004610bb7565b61042d565b6000546040516001600160a01b039091168152602001610111565b61015961019f366004610bb7565b610543565b6101596101b2366004610bb7565b6105fc565b6101056101c5366004610bb7565b6001600160a01b031660009081526003602052604090205460ff1690565b6101596101f1366004610bb7565b610774565b610159610204366004610bb7565b6108ef565b610159610217366004610bb7565b610ae4565b3360009081526001602052604090205460ff1661028c5760405162461bcd60e51b815260206004820152602360248201527f4f6e6c79206167656e74732063616e20706572666f726d20746869732061637460448201526234b7b760e91b60648201526084015b60405180910390fd5b6001600160a01b0381166102e25760405162461bcd60e51b815260206004820152601c60248201527f43616e6e6f74207265676973746572207a65726f2061646472657373000000006044820152606401610283565b6001600160a01b03811660009081526002602052604090205460ff161561034b5760405162461bcd60e51b815260206004820152601760248201527f5573657220616c726561647920726567697374657265640000000000000000006044820152606401610283565b6001600160a01b03811660009081526003602052604090205460ff16156103c05760405162461bcd60e51b8152602060048201526024808201527f4164647265737320616c7265616479207265676973746572656420617320656e6044820152637469747960e01b6064820152608401610283565b6001600160a01b0381166000818152600260209081526040808320805460ff19166001179055519182527f28a24a60e275c9be5babc23ecefd3240b1fcd56ef4d3fe4818437200b55ae5ff91015b60405180910390a250565b610421610b22565b61042b6000610b4f565b565b610435610b22565b6001600160a01b03811661048b5760405162461bcd60e51b815260206004820181905260248201527f43616e6e6f7420616464207a65726f2061646472657373206173206167656e746044820152606401610283565b6001600160a01b03811660009081526001602052604090205460ff16156104f45760405162461bcd60e51b815260206004820152601b60248201527f4164647265737320697320616c726561647920616e206167656e7400000000006044820152606401610283565b6001600160a01b0381166000818152600160208190526040808320805460ff1916909217909155517ff68e73cec97f2d70aa641fb26e87a4383686e2efacb648f2165aeb02ac562ec59190a250565b61054b610b22565b6001600160a01b03811660009081526001602052604090205460ff166105b35760405162461bcd60e51b815260206004820152601760248201527f41646472657373206973206e6f7420616e206167656e740000000000000000006044820152606401610283565b6001600160a01b038116600081815260016020526040808220805460ff19169055517fed9c8ad8d5a0a66898ea49d2956929c93ae2e8bd50281b2ed897c5d1a6737e0b9190a250565b3360009081526001602052604090205460ff166106675760405162461bcd60e51b815260206004820152602360248201527f4f6e6c79206167656e74732063616e20706572666f726d20746869732061637460448201526234b7b760e91b6064820152608401610283565b6001600160a01b0381166106bd5760405162461bcd60e51b815260206004820152601a60248201527f43616e6e6f742072656d6f7665207a65726f20616464726573730000000000006044820152606401610283565b6001600160a01b03811660009081526002602052604090205460ff166107255760405162461bcd60e51b815260206004820152601360248201527f55736572206e6f742072656769737465726564000000000000000000000000006044820152606401610283565b6001600160a01b0381166000818152600260209081526040808320805460ff19169055519182527f57ffeda2cca1356c20c3f388d439e7ee49a825f846a911f8981726bea201188f910161040e565b3360009081526001602052604090205460ff166107df5760405162461bcd60e51b815260206004820152602360248201527f4f6e6c79206167656e74732063616e20706572666f726d20746869732061637460448201526234b7b760e91b6064820152608401610283565b6001600160a01b0381166108355760405162461bcd60e51b815260206004820152601a60248201527f43616e6e6f742072656d6f7665207a65726f20616464726573730000000000006044820152606401610283565b6001600160a01b03811660009081526003602052604090205460ff1661089d5760405162461bcd60e51b815260206004820152601560248201527f456e74697479206e6f74207265676973746572656400000000000000000000006044820152606401610283565b6001600160a01b038116600081815260036020908152604091829020805460ff191690559051600181527f57ffeda2cca1356c20c3f388d439e7ee49a825f846a911f8981726bea201188f910161040e565b3360009081526001602052604090205460ff1661095a5760405162461bcd60e51b815260206004820152602360248201527f4f6e6c79206167656e74732063616e20706572666f726d20746869732061637460448201526234b7b760e91b6064820152608401610283565b6001600160a01b0381166109b05760405162461bcd60e51b815260206004820152601c60248201527f43616e6e6f74207265676973746572207a65726f2061646472657373000000006044820152606401610283565b6001600160a01b03811660009081526003602052604090205460ff1615610a195760405162461bcd60e51b815260206004820152601960248201527f456e7469747920616c72656164792072656769737465726564000000000000006044820152606401610283565b6001600160a01b03811660009081526002602052604090205460ff1615610a8d5760405162461bcd60e51b815260206004820152602260248201527f4164647265737320616c7265616479207265676973746572656420617320757360448201526132b960f11b6064820152608401610283565b6001600160a01b038116600081815260036020908152604091829020805460ff1916600190811790915591519182527f28a24a60e275c9be5babc23ecefd3240b1fcd56ef4d3fe4818437200b55ae5ff910161040e565b610aec610b22565b6001600160a01b038116610b1657604051631e4fbdf760e01b815260006004820152602401610283565b610b1f81610b4f565b50565b6000546001600160a01b0316331461042b5760405163118cdaa760e01b8152336004820152602401610283565b600080546001600160a01b038381167fffffffffffffffffffffffff0000000000000000000000000000000000000000831681178455604051919092169283917f8be0079c531659141344cd1fd0a4f28419497f9722a3daafe3b4186f6b6457e09190a35050565b600060208284031215610bc957600080fd5b81356001600160a01b0381168114610be057600080fd5b939250505056fea2646970667358221220d1d3e45b298ec63e870070cb7f149b96b1f115bce26d03eb42dd567192a7025564736f6c63430008140033",
  "linkReferences": {},
  "deployedLinkReferences": {}
}