{
  "_format": "hh-sol-artifact-1",
  "contractName": "USDCPaws",
  "sourceName": "contracts/USDCPaws.sol",
  "abi": [
    {
      "inputs": [
        {
          "internalType": "address",
          "name": "",
          "type": "address"
        }
      ],
      "name": "balanceOf",
      "outputs": [
        {
          "internalType": "uint256",
          "name": "",
          "type": "uint256"
        }
      ],
      "stateMutability": "view",
      "type": "function"
    },
    {
      "inputs": [],
      "name": "decimals",
      "outputs": [
        {
          "internalType": "uint8",
          "name": "",
          "type": "uint8"
        }
      ],
      "stateMutability": "view",
      "type": "function"
    },
    {
      "inputs": [
        {
          "internalType": "address",
          "name": "to",
          "type": "address"
        },
        {
          "internalType": "uint256",
          "name": "amount",
          "type": "uint256"
        }
      ],
      "name": "mint",
      "outputs": [],
      "stateMutability": "nonpayable",
      "type": "function"
    },
    {
      "inputs": [],
      "name": "name",
      "outputs": [
        {
          "internalType": "string",
          "name": "",
          "type": "string"
        }
      ],
      "stateMutability": "view",
      "type": "function"
    },
    {
      "inputs": [],
      "name": "symbol",
      "outputs": [
        {
          "internalType": "string",
          "name": "",
          "type": "string"
        }
      ],
      "stateMutability": "view",
      "type": "function"
    },
    {
      "inputs": [
        {
          "internalType": "address",
          "name": "to",
          "type": "address"
        },
        {
          "internalType": "uint256",
          "name": "amount",
          "type": "uint256"
        }
      ],
      "name": "transfer",
      "outputs": [
        {
          "internalType": "bool",
          "name": "",
          "type": "bool"
        }
      ],
      "stateMutability": "nonpayable",
      "type": "function"
    }
  ],
  "bytecode": "0x60c0604052600d60809081526c55534420436f696e205061777360981b60a05260009061002c9082610118565b50604080518082019091526008815267555344435061777360c01b60208201526001906100599082610118565b506002805460ff1916600617905534801561007357600080fd5b506101d7565b634e487b7160e01b600052604160045260246000fd5b600181811c908216806100a357607f821691505b6020821081036100c357634e487b7160e01b600052602260045260246000fd5b50919050565b601f82111561011357600081815260208120601f850160051c810160208610156100f05750805b601f850160051c820191505b8181101561010f578281556001016100fc565b5050505b505050565b81516001600160401b0381111561013157610131610079565b6101458161013f845461008f565b846100c9565b602080601f83116001811461017a57600084156101625750858301515b600019600386901b1c1916600185901b17855561010f565b600085815260208120601f198616915b828110156101a95788860151825594840194600190910190840161018a565b50858210156101c75787850151600019600388901b60f8161c191681555b5050505050600190811b01905550565b610436806101e66000396000f3fe608060405234801561001057600080fd5b50600436106100725760003560e01c806370a082311161005057806370a08231146100c957806395d89b41146100f7578063a9059cbb146100ff57600080fd5b806306fdde0314610077578063313ce5671461009557806340c10f19146100b4575b600080fd5b61007f610122565b60405161008c91906102c7565b60405180910390f35b6002546100a29060ff1681565b60405160ff909116815260200161008c565b6100c76100c236600461033e565b6101b0565b005b6100e96100d7366004610368565b60036020526000908152604090205481565b60405190815260200161008c565b61007f6101ee565b61011261010d36600461033e565b6101fb565b604051901515815260200161008c565b6000805461012f9061038a565b80601f016020809104026020016040519081016040528092919081815260200182805461015b9061038a565b80156101a85780601f1061017d576101008083540402835291602001916101a8565b820191906000526020600020905b81548152906001019060200180831161018b57829003601f168201915b505050505081565b73ffffffffffffffffffffffffffffffffffffffff8216600090815260036020526040812080548392906101e59084906103da565b90915550505050565b6001805461012f9061038a565b3360009081526003602052604081205482111561025e5760405162461bcd60e51b815260206004820152601460248201527f496e73756666696369656e742062616c616e6365000000000000000000000000604482015260640160405180910390fd5b336000908152600360205260408120805484929061027d9084906103ed565b909155505073ffffffffffffffffffffffffffffffffffffffff8316600090815260036020526040812080548492906102b79084906103da565b9091555060019150505b92915050565b600060208083528351808285015260005b818110156102f4578581018301518582016040015282016102d8565b506000604082860101526040601f19601f8301168501019250505092915050565b803573ffffffffffffffffffffffffffffffffffffffff8116811461033957600080fd5b919050565b6000806040838503121561035157600080fd5b61035a83610315565b946020939093013593505050565b60006020828403121561037a57600080fd5b61038382610315565b9392505050565b600181811c9082168061039e57607f821691505b6020821081036103be57634e487b7160e01b600052602260045260246000fd5b50919050565b634e487b7160e01b600052601160045260246000fd5b808201808211156102c1576102c16103c4565b818103818111156102c1576102c16103c456fea26469706673582212205e928baea44712ed0c093042787c8b1571f61d5e6d79a0dd02e6c6369767f58e64736f6c63430008140033",
  "linkReferences": {},
  "deployedLinkReferences": {}
}